{
  "_format": "hh-sol-artifact-1",
  "contractName": "WavePortal",
  "sourceName": "contracts/WavePortal.sol",
  "abi": [
    {
      "inputs": [],
      "stateMutability": "payable",
      "type": "constructor"
    },
    {
      "anonymous": false,
      "inputs": [
        {
          "indexed": true,
          "internalType": "address",
          "name": "from",
          "type": "address"
        },
        {
          "indexed": false,
          "internalType": "uint256",
          "name": "timestamp",
          "type": "uint256"
        },
        {
          "indexed": false,
          "internalType": "string",
          "name": "message",
          "type": "string"
        }
      ],
      "name": "NewWave",
      "type": "event"
    },
    {
      "inputs": [],
      "name": "getAllWaves",
      "outputs": [
        {
          "components": [
            {
              "internalType": "address",
              "name": "waver",
              "type": "address"
            },
            {
              "internalType": "string",
              "name": "message",
              "type": "string"
            },
            {
              "internalType": "uint256",
              "name": "timestamp",
              "type": "uint256"
            }
          ],
          "internalType": "struct WavePortal.Wave[]",
          "name": "",
          "type": "tuple[]"
        }
      ],
      "stateMutability": "view",
      "type": "function"
    },
    {
      "inputs": [],
      "name": "getTotalWaves",
      "outputs": [
        {
          "internalType": "uint256",
          "name": "",
          "type": "uint256"
        }
      ],
      "stateMutability": "view",
      "type": "function"
    },
    {
      "inputs": [
        {
          "internalType": "string",
          "name": "_message",
          "type": "string"
        }
      ],
      "name": "wave",
      "outputs": [],
      "stateMutability": "nonpayable",
      "type": "function"
    }
  ],
  "bytecode": "0x608060405260644442620000149190620001cf565b6200002091906200026c565b60018190555062000058604051806060016040528060378152602001620012d5603791396001546200005e60201b620005b41760201c565b62000313565b620001008282604051602401620000779291906200017f565b6040516020818303038152906040527f9710a9d0000000000000000000000000000000000000000000000000000000007bffffffffffffffffffffffffffffffffffffffffffffffffffffffff19166020820180517bffffffffffffffffffffffffffffffffffffffffffffffffffffffff83818316178352505050506200010460201b60201c565b5050565b60008151905060006a636f6e736f6c652e6c6f679050602083016000808483855afa5050505050565b60006200013a82620001b3565b620001468185620001be565b93506200015881856020860162000236565b620001638162000302565b840191505092915050565b62000179816200022c565b82525050565b600060408201905081810360008301526200019b81856200012d565b9050620001ac60208301846200016e565b9392505050565b600081519050919050565b600082825260208201905092915050565b6000620001dc826200022c565b9150620001e9836200022c565b9250827fffffffffffffffffffffffffffffffffffffffffffffffffffffffffffffffff03821115620002215762000220620002a4565b5b828201905092915050565b6000819050919050565b60005b838110156200025657808201518184015260208101905062000239565b8381111562000266576000848401525b50505050565b600062000279826200022c565b915062000286836200022c565b925082620002995762000298620002d3565b5b828206905092915050565b7f4e487b7100000000000000000000000000000000000000000000000000000000600052601160045260246000fd5b7f4e487b7100000000000000000000000000000000000000000000000000000000600052601260045260246000fd5b6000601f19601f8301169050919050565b610fb280620003236000396000f3fe608060405234801561001057600080fd5b50600436106100415760003560e01c8063449d46c0146100465780639a2cdc0814610062578063bd43a90814610080575b600080fd5b610060600480360381019061005b9190610820565b61009e565b005b61006a61045a565b6040516100779190610b6b565b60405180910390f35b610088610463565b6040516100959190610a89565b60405180910390f35b42610384600260003373ffffffffffffffffffffffffffffffffffffffff1673ffffffffffffffffffffffffffffffffffffffff168152602001908152602001600020546100ec9190610c7d565b1061012c576040517f08c379a000000000000000000000000000000000000000000000000000000000815260040161012390610b4b565b60405180910390fd5b42600260003373ffffffffffffffffffffffffffffffffffffffff1673ffffffffffffffffffffffffffffffffffffffff1681526020019081526020016000208190555060016000808282546101829190610c7d565b92505081905550600360405180606001604052803373ffffffffffffffffffffffffffffffffffffffff16815260200183815260200142815250908060018154018082558091505060019003906000526020600020906003020160009091909190915060008201518160000160006101000a81548173ffffffffffffffffffffffffffffffffffffffff021916908373ffffffffffffffffffffffffffffffffffffffff1602179055506020820151816001019080519060200190610248929190610715565b50604082015181600201555050606460015442446102669190610c7d565b6102709190610c7d565b61027a9190610db4565b6001819055506102c16040518060400160405280601681526020017f52616e646f6d20232067656e6572617465643a202564000000000000000000008152506001546105b4565b6032600154116104075761030a6040518060400160405280600781526020017f257320776f6e210000000000000000000000000000000000000000000000000081525033610650565b6000655af3107a4000905047811115610358576040517f08c379a000000000000000000000000000000000000000000000000000000000815260040161034f90610b0b565b60405180910390fd5b60003373ffffffffffffffffffffffffffffffffffffffff168260405161037e90610a74565b60006040518083038185875af1925050503d80600081146103bb576040519150601f19603f3d011682016040523d82523d6000602084013e6103c0565b606091505b5050905080610404576040517f08c379a00000000000000000000000000000000000000000000000000000000081526004016103fb90610b2b565b60405180910390fd5b50505b3373ffffffffffffffffffffffffffffffffffffffff167f5f7e16dc676677766a70e9c5628aa6c54ddb8b6e5188e2ae1e1f17f1ffbea716428360405161044f929190610b86565b60405180910390a250565b60008054905090565b60606003805480602002602001604051908101604052809291908181526020016000905b828210156105ab57838290600052602060002090600302016040518060600160405290816000820160009054906101000a900473ffffffffffffffffffffffffffffffffffffffff1673ffffffffffffffffffffffffffffffffffffffff1673ffffffffffffffffffffffffffffffffffffffff16815260200160018201805461051090610d51565b80601f016020809104026020016040519081016040528092919081815260200182805461053c90610d51565b80156105895780601f1061055e57610100808354040283529160200191610589565b820191906000526020600020905b81548152906001019060200180831161056c57829003601f168201915b5050505050815260200160028201548152505081526020019060010190610487565b50505050905090565b61064c82826040516024016105ca929190610adb565b6040516020818303038152906040527f9710a9d0000000000000000000000000000000000000000000000000000000007bffffffffffffffffffffffffffffffffffffffffffffffffffffffff19166020820180517bffffffffffffffffffffffffffffffffffffffffffffffffffffffff83818316178352505050506106ec565b5050565b6106e88282604051602401610666929190610aab565b6040516020818303038152906040527f319af333000000000000000000000000000000000000000000000000000000007bffffffffffffffffffffffffffffffffffffffffffffffffffffffff19166020820180517bffffffffffffffffffffffffffffffffffffffffffffffffffffffff83818316178352505050506106ec565b5050565b60008151905060006a636f6e736f6c652e6c6f679050602083016000808483855afa5050505050565b82805461072190610d51565b90600052602060002090601f016020900481019282610743576000855561078a565b82601f1061075c57805160ff191683800117855561078a565b8280016001018555821561078a579182015b8281111561078957825182559160200191906001019061076e565b5b509050610797919061079b565b5090565b5b808211156107b457600081600090555060010161079c565b5090565b60006107cb6107c684610bdb565b610bb6565b9050828152602081018484840111156107e357600080fd5b6107ee848285610d0f565b509392505050565b600082601f83011261080757600080fd5b81356108178482602086016107b8565b91505092915050565b60006020828403121561083257600080fd5b600082013567ffffffffffffffff81111561084c57600080fd5b610858848285016107f6565b91505092915050565b600061086d8383610a06565b905092915050565b61087e81610cd3565b82525050565b61088d81610cd3565b82525050565b600061089e82610c1c565b6108a88185610c3f565b9350836020820285016108ba85610c0c565b8060005b858110156108f657848403895281516108d78582610861565b94506108e283610c32565b925060208a019950506001810190506108be565b50829750879550505050505092915050565b600061091382610c27565b61091d8185610c5b565b935061092d818560208601610d1e565b61093681610ea1565b840191505092915050565b600061094c82610c27565b6109568185610c6c565b9350610966818560208601610d1e565b61096f81610ea1565b840191505092915050565b6000610987603483610c6c565b915061099282610eb2565b604082019050919050565b60006109aa602783610c6c565b91506109b582610f01565b604082019050919050565b60006109cd600e83610c6c565b91506109d882610f50565b602082019050919050565b60006109f0600083610c50565b91506109fb82610f79565b600082019050919050565b6000606083016000830151610a1e6000860182610875565b5060208301518482036020860152610a368282610908565b9150506040830151610a4b6040860182610a56565b508091505092915050565b610a5f81610d05565b82525050565b610a6e81610d05565b82525050565b6000610a7f826109e3565b9150819050919050565b60006020820190508181036000830152610aa38184610893565b905092915050565b60006040820190508181036000830152610ac58185610941565b9050610ad46020830184610884565b9392505050565b60006040820190508181036000830152610af58185610941565b9050610b046020830184610a65565b9392505050565b60006020820190508181036000830152610b248161097a565b9050919050565b60006020820190508181036000830152610b448161099d565b9050919050565b60006020820190508181036000830152610b64816109c0565b9050919050565b6000602082019050610b806000830184610a65565b92915050565b6000604082019050610b9b6000830185610a65565b8181036020830152610bad8184610941565b90509392505050565b6000610bc0610bd1565b9050610bcc8282610d83565b919050565b6000604051905090565b600067ffffffffffffffff821115610bf657610bf5610e72565b5b610bff82610ea1565b9050602081019050919050565b6000819050602082019050919050565b600081519050919050565b600081519050919050565b6000602082019050919050565b600082825260208201905092915050565b600081905092915050565b600082825260208201905092915050565b600082825260208201905092915050565b6000610c8882610d05565b9150610c9383610d05565b9250827fffffffffffffffffffffffffffffffffffffffffffffffffffffffffffffffff03821115610cc857610cc7610de5565b5b828201905092915050565b6000610cde82610ce5565b9050919050565b600073ffffffffffffffffffffffffffffffffffffffff82169050919050565b6000819050919050565b82818337600083830152505050565b60005b83811015610d3c578082015181840152602081019050610d21565b83811115610d4b576000848401525b50505050565b60006002820490506001821680610d6957607f821691505b60208210811415610d7d57610d7c610e43565b5b50919050565b610d8c82610ea1565b810181811067ffffffffffffffff82111715610dab57610daa610e72565b5b80604052505050565b6000610dbf82610d05565b9150610dca83610d05565b925082610dda57610dd9610e14565b5b828206905092915050565b7f4e487b7100000000000000000000000000000000000000000000000000000000600052601160045260246000fd5b7f4e487b7100000000000000000000000000000000000000000000000000000000600052601260045260246000fd5b7f4e487b7100000000000000000000000000000000000000000000000000000000600052602260045260246000fd5b7f4e487b7100000000000000000000000000000000000000000000000000000000600052604160045260246000fd5b6000601f19601f8301169050919050565b7f547279696e6720746f207769746864726177206d6f7265206d6f6e657920746860008201527f616e2074686520636f6e7472616374206861732e000000000000000000000000602082015250565b7f4661696c656420746f207769746864726177206d6f6e65792066726f6d20636f60008201527f6e74726163742e00000000000000000000000000000000000000000000000000602082015250565b7f7761697420666f722031356d696e000000000000000000000000000000000000600082015250565b5056fea2646970667358221220a5b3cda7f521f8a718df7cb7641f0468b3f686a6986849185517dea6888f829464736f6c63430008040033596f20796f2c204920616d206120636f6e747261637420616e64204920616d20736d61727420616e64207365656420696e69743a202564",
  "linkReferences": {},
  "deployedLinkReferences": {}
}